:100000000C9434000C943E000C943E000C943E0082
:100010000C943E000C943E000C943E000C943E0068
:100020000C943E000C943E000C943E000C943E0058
:100030000C943E000C943E000C943E000C943E0048
:100040000C943E000C943E000C943E000C943E0038
:100050000C943E000C943E000C943E000C943E0028
:100060000C943E000C943E0011241FBECFEFD8E04C
:10007000DEBFCDBF0E9440000C9473000C940000C2
:10008000CF93DF9300D000D0CDB7DEB784E290E00D
:10009000FC01208184E290E02260FC01208385E263
:1000A00090E0FC01308185E290E022E02327FC0112
:1000B00020831A82198212C01C821B8205C08B8188
:1000C0009C8101969C838B838B819C81803197429C
:1000D000B4F389819A8101969A83898389819A816F
:0A00E0000A9754F3DCCFF894FFCF29
:00000001FF
