:100000000C9434000C9451000C9451000C94510049
:100010000C9451000C9451000C9451000C9451001C
:100020000C9451000C9451000C9451000C9451000C
:100030000C9451000C9451000C9451000C945100FC
:100040000C9451000C9451000C9451000C945100EC
:100050000C9451000C9451000C9451000C945100DC
:100060000C9451000C94510011241FBECFEFD8E026
:10007000DEBFCDBF11E0A0E0B1E0E2E2F1E002C0FE
:1000800005900D92AC30B107D9F711E0ACE0B1E0CA
:1000900001C01D92A231B107E1F70E9453000C94F8
:1000A0008F000C94000080E091E00E945A0080E0F4
:1000B00090E008950F931F93CF93DF938C01E0910D
:1000C0000E01F0910F01838181FF21C0C0E0D0E0DB
:1000D0000DC0E0910E01F0910F0120853185BF0127
:1000E000F9010995892B11F0CFEFDFEFF80181912C
:1000F0008F01882371F7E0910E01F0910F012085A7
:1001000031858AE0BF01F9010995892B11F0CFEF04
:10011000DFEFCE01DF91CF911F910F910895F894F9
:02012000FFCF0F
:0C01220068656C6C6F20776F726C640075
:00000001FF
